{"abi":[{"type":"constructor","inputs":[],"stateMutability":"nonpayable"},{"type":"function","name":"challengePeriod","inputs":[],"outputs":[{"name":"","type":"uint256","internalType":"uint256"}],"stateMutability":"view"},{"type":"function","name":"challengeProof","inputs":[{"name":"problemCommitment","type":"bytes32","internalType":"bytes32"},{"name":"spinCommitment","type":"bytes32","internalType":"bytes32"},{"name":"claimedEnergy","type":"int64","internalType":"int64"},{"name":"proof","type":"bytes","internalType":"bytes"},{"name":"fraudProof","type":"bytes","internalType":"bytes"}],"outputs":[],"stateMutability":"nonpayable"},{"type":"function","name":"challengedProofs","inputs":[{"name":"","type":"bytes32","internalType":"bytes32"}],"outputs":[{"name":"","type":"bool","internalType":"bool"}],"stateMutability":"view"},{"type":"function","name":"mode","inputs":[],"outputs":[{"name":"","type":"uint8","internalType":"enum NovaVerifier.Mode"}],"stateMutability":"view"},{"type":"function","name":"owner","inputs":[],"outputs":[{"name":"","type":"address","internalType":"address"}],"stateMutability":"view"},{"type":"function","name":"proofSubmissionTime","inputs":[{"name":"","type":"bytes32","internalType":"bytes32"}],"outputs":[{"name":"","type":"uint256","internalType":"uint256"}],"stateMutability":"view"},{"type":"function","name":"setChallengePeriod","inputs":[{"name":"_period","type":"uint256","internalType":"uint256"}],"outputs":[],"stateMutability":"nonpayable"},{"type":"function","name":"setMode","inputs":[{"name":"_mode","type":"uint8","internalType":"enum NovaVerifier.Mode"}],"outputs":[],"stateMutability":"nonpayable"},{"type":"function","name":"submitForOptimisticVerification","inputs":[{"name":"problemCommitment","type":"bytes32","internalType":"bytes32"},{"name":"spinCommitment","type":"bytes32","internalType":"bytes32"},{"name":"claimedEnergy","type":"int64","internalType":"int64"},{"name":"proof","type":"bytes","internalType":"bytes"}],"outputs":[],"stateMutability":"nonpayable"},{"type":"function","name":"transferOwnership","inputs":[{"name":"newOwner","type":"address","internalType":"address"}],"outputs":[],"stateMutability":"nonpayable"},{"type":"function","name":"verify","inputs":[{"name":"problemCommitment","type":"bytes32","internalType":"bytes32"},{"name":"spinCommitment","type":"bytes32","internalType":"bytes32"},{"name":"claimedEnergy","type":"int64","internalType":"int64"},{"name":"threshold","type":"int64","internalType":"int64"},{"name":"proof","type":"bytes","internalType":"bytes"}],"outputs":[{"name":"valid","type":"bool","internalType":"bool"}],"stateMutability":"view"},{"type":"event","name":"ModeChanged","inputs":[{"name":"oldMode","type":"uint8","indexed":false,"internalType":"enum NovaVerifier.Mode"},{"name":"newMode","type":"uint8","indexed":false,"internalType":"enum NovaVerifier.Mode"}],"anonymous":false},{"type":"event","name":"ProofChallenged","inputs":[{"name":"proofHash","type":"bytes32","indexed":true,"internalType":"bytes32"},{"name":"challenger","type":"address","indexed":false,"internalType":"address"}],"anonymous":false},{"type":"event","name":"ProofSubmitted","inputs":[{"name":"proofHash","type":"bytes32","indexed":true,"internalType":"bytes32"},{"name":"timestamp","type":"uint256","indexed":false,"internalType":"uint256"}],"anonymous":false}],"bytecode":{"object":"0x60806040525f805460ff19169055610e1060015534801561001e575f80fd5b505f8054610100600160a81b0319163361010002179055610bb2806100425f395ff3fe608060405234801561000f575f80fd5b50600436106100a6575f3560e01c8063c0900a521161006e578063c0900a5214610136578063e5c0063014610159578063e9b18f551461016c578063f2fde38b1461018e578063f3f480d9146101a1578063f57ed797146101b8575f80fd5b806321175b4a146100aa578063295a5212146100bf5780635d475fdd146100e15780638da5cb5b146100f45780639361359414610123575b5f80fd5b6100bd6100b8366004610879565b6101d7565b005b5f546100cb9060ff1681565b6040516100d891906108d2565b60405180910390f35b6100bd6100ef3660046108e6565b610274565b5f5461010b9061010090046001600160a01b031681565b6040516001600160a01b0390911681526020016100d8565b6100bd610131366004610958565b6102ec565b6101496101443660046109bb565b610422565b60405190151581526020016100d8565b6100bd610167366004610a2e565b610522565b61014961017a3660046108e6565b60036020525f908152604090205460ff1681565b6100bd61019c366004610abb565b61074b565b6101aa60015481565b6040519081526020016100d8565b6101aa6101c63660046108e6565b60026020525f908152604090205481565b5f5461010090046001600160a01b0316331461020e5760405162461bcd60e51b815260040161020590610ae1565b60405180910390fd5b5f546040517f73f069d8a008c9e2fe78e308751100d873455f99593c7d60eff545e91a90ab04916102469160ff909116908490610b04565b60405180910390a15f805482919060ff1916600183600281111561026c5761026c61089e565b021790555050565b5f5461010090046001600160a01b031633146102a25760405162461bcd60e51b815260040161020590610ae1565b6102588110156102e75760405162461bcd60e51b815260206004820152601060248201526f14195c9a5bd9081d1bdbc81cda1bdc9d60821b6044820152606401610205565b600155565b60015f5460ff1660028111156103045761030461089e565b1461034a5760405162461bcd60e51b81526020600482015260166024820152754e6f7420696e206f7074696d6973746963206d6f646560501b6044820152606401610205565b5f8585858585604051602001610364959493929190610b1f565b60408051601f1981840301815291815281516020928301205f8181526002909352912054909150156103cc5760405162461bcd60e51b8152602060048201526011602482015270105b1c9958591e481cdd589b5a5d1d1959607a1b6044820152606401610205565b5f81815260026020526040908190204290819055905182917f3c0e85acf452e867ee09c9151d2cf45fe6d6a729271347e89a9a6b91b081f31d9161041291815260200190565b60405180910390a2505050505050565b5f805f5460ff16600281111561043a5761043a61089e565b0361045d576020821080159061045657508360070b8560070b13155b9050610518565b60015f5460ff1660028111156104755761047561089e565b03610507575f8787878686604051602001610494959493929190610b1f565b60408051601f1981840301815291815281516020928301205f818152600290935290822054909250908190036104ce575f92505050610518565b5f8281526003602052604090205460ff16156104ee575f92505050610518565b6001546104fb9082610b49565b42101592505050610518565b6105158787878787876107e6565b90505b9695505050505050565b60015f5460ff16600281111561053a5761053a61089e565b146105805760405162461bcd60e51b81526020600482015260166024820152754e6f7420696e206f7074696d6973746963206d6f646560501b6044820152606401610205565b5f878787878760405160200161059a959493929190610b1f565b60408051601f1981840301815291815281516020928301205f8181526002909352912054909150806106045760405162461bcd60e51b8152602060048201526013602482015272141c9bdbd9881b9bdd081cdd589b5a5d1d1959606a1b6044820152606401610205565b6001546106119082610b49565b42106106585760405162461bcd60e51b815260206004820152601660248201527510da185b1b195b99d9481c195c9a5bd908195b99195960521b6044820152606401610205565b5f8281526003602052604090205460ff16156106ab5760405162461bcd60e51b8152602060048201526012602482015271105b1c9958591e4818da185b1b195b99d95960721b6044820152606401610205565b821515806106f15760405162461bcd60e51b815260206004820152601360248201527224b73b30b634b210333930bab210383937b7b360691b6044820152606401610205565b5f83815260036020908152604091829020805460ff19166001179055905133815284917ff7eae3fc02f67c3b364328ea257057f01ca0a26d419df19d0837a73858237ed9910160405180910390a250505050505050505050565b5f5461010090046001600160a01b031633146107795760405162461bcd60e51b815260040161020590610ae1565b6001600160a01b0381166107bf5760405162461bcd60e51b815260206004820152600d60248201526c24b73b30b634b21037bbb732b960991b6044820152606401610205565b5f80546001600160a01b0390921661010002610100600160a81b0319909216919091179055565b5f6103e88210156107f857505f610518565b8360070b8560070b131561080d57505f610518565b82825f81811061081f5761081f610b68565b9050013560f81c60f81b6001600160f81b031916604e60f81b14801561051557508282600181811061085357610853610b68565b9050013560f81c60f81b6001600160f81b031916604f60f81b1490509695505050505050565b5f60208284031215610889575f80fd5b813560038110610897575f80fd5b9392505050565b634e487b7160e01b5f52602160045260245ffd5b600381106108ce57634e487b7160e01b5f52602160045260245ffd5b9052565b602081016108e082846108b2565b92915050565b5f602082840312156108f6575f80fd5b5035919050565b8035600781900b811461090e575f80fd5b919050565b5f8083601f840112610923575f80fd5b50813567ffffffffffffffff81111561093a575f80fd5b602083019150836020828501011115610951575f80fd5b9250929050565b5f805f805f6080868803121561096c575f80fd5b8535945060208601359350610983604087016108fd565b9250606086013567ffffffffffffffff81111561099e575f80fd5b6109aa88828901610913565b969995985093965092949392505050565b5f805f805f8060a087890312156109d0575f80fd5b86359550602087013594506109e7604088016108fd565b93506109f5606088016108fd565b9250608087013567ffffffffffffffff811115610a10575f80fd5b610a1c89828a01610913565b979a9699509497509295939492505050565b5f805f805f805f60a0888a031215610a44575f80fd5b8735965060208801359550610a5b604089016108fd565b9450606088013567ffffffffffffffff80821115610a77575f80fd5b610a838b838c01610913565b909650945060808a0135915080821115610a9b575f80fd5b50610aa88a828b01610913565b989b979a50959850939692959293505050565b5f60208284031215610acb575f80fd5b81356001600160a01b0381168114610897575f80fd5b6020808252600990820152682737ba1037bbb732b960b91b604082015260600190565b60408101610b1282856108b2565b61089760208301846108b2565b8581528460208201528360c01b6040820152818360488301375f9101604801908152949350505050565b808201808211156108e057634e487b7160e01b5f52601160045260245ffd5b634e487b7160e01b5f52603260045260245ffdfea26469706673582212204cc472bf250c98159b6e8370a0ec79aac99999ee20fa11a5e6c888d3066c2f7764736f6c63430008140033","linkReferences":{}},"methodIdentifiers":{"challengePeriod()":"f3f480d9","challengeProof(bytes32,bytes32,int64,bytes,bytes)":"e5c00630","challengedProofs(bytes32)":"e9b18f55","mode()":"295a5212","owner()":"8da5cb5b","proofSubmissionTime(bytes32)":"f57ed797","setChallengePeriod(uint256)":"5d475fdd","setMode(uint8)":"21175b4a","submitForOptimisticVerification(bytes32,bytes32,int64,bytes)":"93613594","transferOwnership(address)":"f2fde38b","verify(bytes32,bytes32,int64,int64,bytes)":"c0900a52"},"id":22}