{"abi":[{"type":"constructor","inputs":[{"name":"_verifier","type":"address","internalType":"address"}],"stateMutability":"nonpayable"},{"type":"function","name":"cancelJob","inputs":[{"name":"jobId","type":"uint256","internalType":"uint256"}],"outputs":[],"stateMutability":"nonpayable"},{"type":"function","name":"collectedFees","inputs":[],"outputs":[{"name":"","type":"uint256","internalType":"uint256"}],"stateMutability":"view"},{"type":"function","name":"expireJob","inputs":[{"name":"jobId","type":"uint256","internalType":"uint256"}],"outputs":[],"stateMutability":"nonpayable"},{"type":"function","name":"getJob","inputs":[{"name":"jobId","type":"uint256","internalType":"uint256"}],"outputs":[{"name":"","type":"tuple","internalType":"struct IsingJobManager.IsingJob","components":[{"name":"problemCommitment","type":"bytes32","internalType":"bytes32"},{"name":"threshold","type":"int64","internalType":"int64"},{"name":"reward","type":"uint256","internalType":"uint256"},{"name":"deadline","type":"uint256","internalType":"uint256"},{"name":"poster","type":"address","internalType":"address"},{"name":"solver","type":"address","internalType":"address"},{"name":"status","type":"uint8","internalType":"enum IsingJobManager.JobStatus"},{"name":"createdAt","type":"uint256","internalType":"uint256"}]}],"stateMutability":"view"},{"type":"function","name":"getOpenJobs","inputs":[{"name":"start","type":"uint256","internalType":"uint256"},{"name":"count","type":"uint256","internalType":"uint256"}],"outputs":[{"name":"","type":"uint256[]","internalType":"uint256[]"}],"stateMutability":"view"},{"type":"function","name":"getSolution","inputs":[{"name":"jobId","type":"uint256","internalType":"uint256"}],"outputs":[{"name":"","type":"tuple","internalType":"struct IsingJobManager.Solution","components":[{"name":"spinCommitment","type":"bytes32","internalType":"bytes32"},{"name":"claimedEnergy","type":"int64","internalType":"int64"},{"name":"proofTimestamp","type":"uint256","internalType":"uint256"}]}],"stateMutability":"view"},{"type":"function","name":"jobs","inputs":[{"name":"","type":"uint256","internalType":"uint256"}],"outputs":[{"name":"problemCommitment","type":"bytes32","internalType":"bytes32"},{"name":"threshold","type":"int64","internalType":"int64"},{"name":"reward","type":"uint256","internalType":"uint256"},{"name":"deadline","type":"uint256","internalType":"uint256"},{"name":"poster","type":"address","internalType":"address"},{"name":"solver","type":"address","internalType":"address"},{"name":"status","type":"uint8","internalType":"enum IsingJobManager.JobStatus"},{"name":"createdAt","type":"uint256","internalType":"uint256"}],"stateMutability":"view"},{"type":"function","name":"minDeadline","inputs":[],"outputs":[{"name":"","type":"uint256","internalType":"uint256"}],"stateMutability":"view"},{"type":"function","name":"minReward","inputs":[],"outputs":[{"name":"","type":"uint256","internalType":"uint256"}],"stateMutability":"view"},{"type":"function","name":"nextJobId","inputs":[],"outputs":[{"name":"","type":"uint256","internalType":"uint256"}],"stateMutability":"view"},{"type":"function","name":"owner","inputs":[],"outputs":[{"name":"","type":"address","internalType":"address"}],"stateMutability":"view"},{"type":"function","name":"postJob","inputs":[{"name":"problemCommitment","type":"bytes32","internalType":"bytes32"},{"name":"threshold","type":"int64","internalType":"int64"},{"name":"deadline","type":"uint256","internalType":"uint256"}],"outputs":[{"name":"jobId","type":"uint256","internalType":"uint256"}],"stateMutability":"payable"},{"type":"function","name":"protocolFeePercent","inputs":[],"outputs":[{"name":"","type":"uint256","internalType":"uint256"}],"stateMutability":"view"},{"type":"function","name":"setProtocolFee","inputs":[{"name":"_feePercent","type":"uint256","internalType":"uint256"}],"outputs":[],"stateMutability":"nonpayable"},{"type":"function","name":"setVerifier","inputs":[{"name":"_verifier","type":"address","internalType":"address"}],"outputs":[],"stateMutability":"nonpayable"},{"type":"function","name":"solutions","inputs":[{"name":"","type":"uint256","internalType":"uint256"}],"outputs":[{"name":"spinCommitment","type":"bytes32","internalType":"bytes32"},{"name":"claimedEnergy","type":"int64","internalType":"int64"},{"name":"proofTimestamp","type":"uint256","internalType":"uint256"}],"stateMutability":"view"},{"type":"function","name":"submitProof","inputs":[{"name":"jobId","type":"uint256","internalType":"uint256"},{"name":"spinCommitment","type":"bytes32","internalType":"bytes32"},{"name":"claimedEnergy","type":"int64","internalType":"int64"},{"name":"proof","type":"bytes","internalType":"bytes"}],"outputs":[],"stateMutability":"nonpayable"},{"type":"function","name":"transferOwnership","inputs":[{"name":"newOwner","type":"address","internalType":"address"}],"outputs":[],"stateMutability":"nonpayable"},{"type":"function","name":"verifier","inputs":[],"outputs":[{"name":"","type":"address","internalType":"address"}],"stateMutability":"view"},{"type":"function","name":"withdrawFees","inputs":[{"name":"to","type":"address","internalType":"address"}],"outputs":[],"stateMutability":"nonpayable"},{"type":"event","name":"JobCancelled","inputs":[{"name":"jobId","type":"uint256","indexed":true,"internalType":"uint256"}],"anonymous":false},{"type":"event","name":"JobExpired","inputs":[{"name":"jobId","type":"uint256","indexed":true,"internalType":"uint256"}],"anonymous":false},{"type":"event","name":"JobPosted","inputs":[{"name":"jobId","type":"uint256","indexed":true,"internalType":"uint256"},{"name":"poster","type":"address","indexed":true,"internalType":"address"},{"name":"problemCommitment","type":"bytes32","indexed":false,"internalType":"bytes32"},{"name":"threshold","type":"int64","indexed":false,"internalType":"int64"},{"name":"reward","type":"uint256","indexed":false,"internalType":"uint256"},{"name":"deadline","type":"uint256","indexed":false,"internalType":"uint256"}],"anonymous":false},{"type":"event","name":"JobSolved","inputs":[{"name":"jobId","type":"uint256","indexed":true,"internalType":"uint256"},{"name":"solver","type":"address","indexed":true,"internalType":"address"},{"name":"spinCommitment","type":"bytes32","indexed":false,"internalType":"bytes32"},{"name":"claimedEnergy","type":"int64","indexed":false,"internalType":"int64"}],"anonymous":false},{"type":"event","name":"VerifierUpdated","inputs":[{"name":"oldVerifier","type":"address","indexed":true,"internalType":"address"},{"name":"newVerifier","type":"address","indexed":true,"internalType":"address"}],"anonymous":false}],"bytecode":{"object":"0x608060405266038d7ea4c68000600555610e106006556001600755348015610025575f80fd5b506040516116e03803806116e083398101604081905261004491610077565b60048054336001600160a01b031991821617909155600380549091166001600160a01b03929092169190911790556100a4565b5f60208284031215610087575f80fd5b81516001600160a01b038116811461009d575f80fd5b9392505050565b61162f806100b15f395ff3fe60806040526004361061011b575f3560e01c80639003adfe1161009d578063bf22c45711610062578063bf22c4571461040d578063c5549cc014610439578063d6e6eb9f1461044e578063f2fde38b14610463578063fd70b0ea14610482575f80fd5b80639003adfe14610351578063b0c2aa5e14610366578063b71698c71461037b578063ba16d600146103d9578063bc76136c146103ee575f80fd5b80632f76dcdd116100e35780632f76dcdd146102455780635437988d146102665780635e974e5614610285578063787dce3d146103135780638da5cb5b14610332575f80fd5b8063164e68de1461011f578063180aedf3146101405780631dffa3dc146101d05780631fc87b3e146101ef5780632b7ac3f31461020e575b5f80fd5b34801561012a575f80fd5b5061013e6101393660046111ef565b6104ae565b005b34801561014b575f80fd5b506101b361015a36600461121c565b5f602081905290815260409020805460018201546002830154600384015460048501546005860154600690960154949560079490940b94929391926001600160a01b039182169291821691600160a01b900460ff169088565b6040516101c7989796959493929190611267565b60405180910390f35b3480156101db575f80fd5b5061013e6101ea36600461121c565b610580565b3480156101fa575f80fd5b5061013e6102093660046112d4565b6106ee565b348015610219575f80fd5b5060035461022d906001600160a01b031681565b6040516001600160a01b0390911681526020016101c7565b610258610253366004611360565b6109c8565b6040519081526020016101c7565b348015610271575f80fd5b5061013e6102803660046111ef565b610c2f565b348015610290575f80fd5b506102ee61029f36600461121c565b60408051606080820183525f808352602080840182905292840181905293845260018083529383902083519182018452805482529384015460070b918101919091526002909201549082015290565b604080518251815260208084015160070b9082015291810151908201526060016101c7565b34801561031e575f80fd5b5061013e61032d36600461121c565b610cb4565b34801561033d575f80fd5b5060045461022d906001600160a01b031681565b34801561035c575f80fd5b5061025860085481565b348015610371575f80fd5b5061025860025481565b348015610386575f80fd5b506103bb61039536600461121c565b600160208190525f918252604090912080549181015460029091015460079190910b9083565b6040805193845260079290920b6020840152908201526060016101c7565b3480156103e4575f80fd5b5061025860055481565b3480156103f9575f80fd5b5061013e61040836600461121c565b610d23565b348015610418575f80fd5b5061042c61042736600461121c565b610e8d565b6040516101c79190611392565b348015610444575f80fd5b5061025860065481565b348015610459575f80fd5b5061025860075481565b34801561046e575f80fd5b5061013e61047d3660046111ef565b610f7a565b34801561048d575f80fd5b506104a161049c366004611402565b61100c565b6040516101c79190611422565b6004546001600160a01b031633146104e15760405162461bcd60e51b81526004016104d890611465565b60405180910390fd5b600880545f918290556040519091906001600160a01b0384169083908381818185875af1925050503d805f8114610533576040519150601f19603f3d011682016040523d82523d5f602084013e610538565b606091505b505090508061057b5760405162461bcd60e51b815260206004820152600f60248201526e15da5d1a191c985dc819985a5b1959608a1b60448201526064016104d8565b505050565b5f81815260208190526040902060048101546001600160a01b031633146105d65760405162461bcd60e51b815260206004820152600a6024820152692737ba103837b9ba32b960b11b60448201526064016104d8565b5f6005820154600160a01b900460ff1660038111156105f7576105f7611233565b146106145760405162461bcd60e51b81526004016104d890611488565b60058101805460ff60a01b1916600360a01b179055600481015460028201546040515f926001600160a01b031691908381818185875af1925050503d805f8114610679576040519150601f19603f3d011682016040523d82523d5f602084013e61067e565b606091505b50509050806106bf5760405162461bcd60e51b815260206004820152600d60248201526c1499599d5b990819985a5b1959609a1b60448201526064016104d8565b60405183907f58243f872c550ad02802199ade99eb4250f6bb19e9abbf2d3de7b969c0eb5e4f905f90a2505050565b5f858152602081905260408120906005820154600160a01b900460ff16600381111561071c5761071c611233565b146107395760405162461bcd60e51b81526004016104d890611488565b806003015442111561077b5760405162461bcd60e51b815260206004820152600b60248201526a129bd888195e1c1a5c995960aa1b60448201526064016104d8565b6001810154600790810b9085900b13156107d75760405162461bcd60e51b815260206004820152601860248201527f456e657267792065786365656473207468726573686f6c64000000000000000060448201526064016104d8565b805460018201545f916107f2918890889060070b8888611104565b9050806108315760405162461bcd60e51b815260206004820152600d60248201526c24b73b30b634b210383937b7b360991b60448201526064016104d8565b6005820180546001600160a81b0319163360ff60a01b191617600160a01b17905560408051606081018252878152600787810b6020808401918252428486019081525f8d8152600192839052958620945185559151908401805467ffffffffffffffff191667ffffffffffffffff9092169190911790555160029283015554908401546064916108c0916114c2565b6108ca91906114d9565b90505f8184600201546108dd91906114f8565b90508160085f8282546108f0919061150b565b90915550506040515f90339083908381818185875af1925050503d805f8114610934576040519150601f19603f3d011682016040523d82523d5f602084013e610939565b606091505b505090508061097c5760405162461bcd60e51b815260206004820152600f60248201526e151c985b9cd9995c8819985a5b1959608a1b60448201526064016104d8565b604080518a815260078a900b602082015233918c917ff7bce2c4a765bd33b071a77570a17d5ffc7762b1177a14a854bcd55dcbecd993910160405180910390a350505050505050505050565b5f600554341015610a0c5760405162461bcd60e51b815260206004820152600e60248201526d52657761726420746f6f206c6f7760901b60448201526064016104d8565b600654610a19904261150b565b821015610a5c5760405162461bcd60e51b81526020600482015260116024820152702232b0b23634b732903a37b79039b7b7b760791b60448201526064016104d8565b83610a9e5760405162461bcd60e51b8152602060048201526012602482015271125b9d985b1a590818dbdb5b5a5d1b595b9d60721b60448201526064016104d8565b60028054905f610aad8361151e565b9190505590506040518061010001604052808581526020018460070b8152602001348152602001838152602001336001600160a01b031681526020015f6001600160a01b031681526020015f6003811115610b0a57610b0a611233565b8152426020918201525f838152808252604090819020835181559183015160018301805467ffffffffffffffff191667ffffffffffffffff9092169190911790558201516002820155606082015160038083019190915560808301516004830180546001600160a01b03199081166001600160a01b039384161790915560a085015160058501805492831691909316908117835560c0860151936001600160a81b03199092161790600160a01b908490811115610bc957610bc9611233565b021790555060e0919091015160069091015560408051858152600785900b60208201523481830152606081018490529051339183917f58a142c6c0dea3b011251906e275a53a70f046b57744d871c8b2c0dd3a0e2dea9181900360800190a39392505050565b6004546001600160a01b03163314610c595760405162461bcd60e51b81526004016104d890611465565b6003546040516001600160a01b038084169216907f0243549a92b2412f7a3caf7a2e56d65b8821b91345363faa5f57195384065fcc905f90a3600380546001600160a01b0319166001600160a01b0392909216919091179055565b6004546001600160a01b03163314610cde5760405162461bcd60e51b81526004016104d890611465565b600a811115610d1e5760405162461bcd60e51b815260206004820152600c60248201526b08ccaca40e8dede40d0d2ced60a31b60448201526064016104d8565b600755565b5f818152602081905260408120906005820154600160a01b900460ff166003811115610d5157610d51611233565b14610d6e5760405162461bcd60e51b81526004016104d890611488565b80600301544211610db35760405162461bcd60e51b815260206004820152600f60248201526e139bdd08195e1c1a5c9959081e595d608a1b60448201526064016104d8565b60058101805460ff60a01b1916600160a11b179055600481015460028201546040515f926001600160a01b031691908381818185875af1925050503d805f8114610e18576040519150601f19603f3d011682016040523d82523d5f602084013e610e1d565b606091505b5050905080610e5e5760405162461bcd60e51b815260206004820152600d60248201526c1499599d5b990819985a5b1959609a1b60448201526064016104d8565b60405183907f97237956f8810192811e2c3f273fd02c5d6295206fdd9c62e6fe2bfc19ba9232905f90a2505050565b60408051610100810182525f80825260208201819052918101829052606081018290526080810182905260a0810182905260c0810182905260e08101919091525f828152602081815260409182902082516101008101845281548152600182015460070b92810192909252600281015492820192909252600380830154606083015260048301546001600160a01b039081166080840152600584015490811660a084015291929160c0840191600160a01b90910460ff1690811115610f5457610f54611233565b6003811115610f6557610f65611233565b81526020016006820154815250509050919050565b6004546001600160a01b03163314610fa45760405162461bcd60e51b81526004016104d890611465565b6001600160a01b038116610fea5760405162461bcd60e51b815260206004820152600d60248201526c24b73b30b634b21037bbb732b960991b60448201526064016104d8565b600480546001600160a01b0319166001600160a01b0392909216919091179055565b60605f8267ffffffffffffffff81111561102857611028611536565b604051908082528060200260200182016040528015611051578160200160208202803683370190505b5090505f845b6002548110801561106757508482105b156110f8575f8082815260208190526040902060050154600160a01b900460ff16600381111561109957611099611233565b1480156110b657505f818152602081905260409020600301544211155b156110e6578083836110c78161151e565b9450815181106110d9576110d961154a565b6020026020010181815250505b806110f08161151e565b915050611057565b50815290505b92915050565b6003545f906001600160a01b031661111f57508015156111e5565b6003546040515f9182916001600160a01b039091169061114d908b908b908b908b908b908b9060240161155e565b60408051601f198184030181529181526020820180516001600160e01b0316636048052960e11b1790525161118291906115ae565b5f60405180830381855afa9150503d805f81146111ba576040519150601f19603f3d011682016040523d82523d5f602084013e6111bf565b606091505b50915091508180156111e05750808060200190518101906111e091906115da565b925050505b9695505050505050565b5f602082840312156111ff575f80fd5b81356001600160a01b0381168114611215575f80fd5b9392505050565b5f6020828403121561122c575f80fd5b5035919050565b634e487b7160e01b5f52602160045260245ffd5b6004811061126357634e487b7160e01b5f52602160045260245ffd5b9052565b888152600788900b602082015260408101879052606081018690526001600160a01b038581166080830152841660a082015261010081016112ab60c0830185611247565b8260e08301529998505050505050505050565b8035600781900b81146112cf575f80fd5b919050565b5f805f805f608086880312156112e8575f80fd5b85359450602086013593506112ff604087016112be565b9250606086013567ffffffffffffffff8082111561131b575f80fd5b818801915088601f83011261132e575f80fd5b81358181111561133c575f80fd5b89602082850101111561134d575f80fd5b9699959850939650602001949392505050565b5f805f60608486031215611372575f80fd5b83359250611382602085016112be565b9150604084013590509250925092565b5f6101008201905082518252602083015160070b60208301526040830151604083015260608301516060830152608083015160018060a01b0380821660808501528060a08601511660a0850152505060c08301516113f360c0840182611247565b5060e092830151919092015290565b5f8060408385031215611413575f80fd5b50508035926020909101359150565b602080825282518282018190525f9190848201906040850190845b818110156114595783518352928401929184019160010161143d565b50909695505050505050565b6020808252600990820152682737ba1037bbb732b960b91b604082015260600190565b6020808252600c908201526b2537b1103737ba1037b832b760a11b604082015260600190565b634e487b7160e01b5f52601160045260245ffd5b80820281158282048414176110fe576110fe6114ae565b5f826114f357634e487b7160e01b5f52601260045260245ffd5b500490565b818103818111156110fe576110fe6114ae565b808201808211156110fe576110fe6114ae565b5f6001820161152f5761152f6114ae565b5060010190565b634e487b7160e01b5f52604160045260245ffd5b634e487b7160e01b5f52603260045260245ffd5b8681528560208201528460070b60408201528360070b606082015260a060808201528160a0820152818360c08301375f81830160c090810191909152601f909201601f1916010195945050505050565b5f82515f5b818110156115cd57602081860181015185830152016115b3565b505f920191825250919050565b5f602082840312156115ea575f80fd5b81518015158114611215575f80fdfea264697066735822122039d2f53ddf8c01e9d31322db2cd86e371d77dfc0e0adb64c5dc1e43d5d55c4e264736f6c63430008140033","linkReferences":{}},"methodIdentifiers":{"cancelJob(uint256)":"1dffa3dc","collectedFees()":"9003adfe","expireJob(uint256)":"bc76136c","getJob(uint256)":"bf22c457","getOpenJobs(uint256,uint256)":"fd70b0ea","getSolution(uint256)":"5e974e56","jobs(uint256)":"180aedf3","minDeadline()":"c5549cc0","minReward()":"ba16d600","nextJobId()":"b0c2aa5e","owner()":"8da5cb5b","postJob(bytes32,int64,uint256)":"2f76dcdd","protocolFeePercent()":"d6e6eb9f","setProtocolFee(uint256)":"787dce3d","setVerifier(address)":"5437988d","solutions(uint256)":"b71698c7","submitProof(uint256,bytes32,int64,bytes)":"1fc87b3e","transferOwnership(address)":"f2fde38b","verifier()":"2b7ac3f3","withdrawFees(address)":"164e68de"},"id":21}